:020000040800F2
:10000000F88600209D0100081B2500085F230008DA
:1000100019250008150500084D3F000800000000E4
:10002000000000000000000000000000A9260008F9
:100030003906000800000000A7260008AB260008CB
:10004000B7010008B7010008B7010008B7010008B0
:10005000B7010008B7010008B7010008B7010008A0
:10006000B7010008B7010008B7010008B701000890
:10007000B7010008B7010008B7010008B701000880
:10008000B7010008B7010008B7010008B701000870
:10009000B7010008B7010008B7010008B701000860
:1000A000B7010008B7010008B7010008B701000850
:1000B000B70100084D270008B7010008B701000884
:1000C000B7010008B7010008B7010008B701000830
:1000D000B7010008B7010008B7010008B701000820
:1000E000B7010008B7010008B7010008B701000810
:1000F000B7010008B7010008B7010008B701000800
:10010000B7010008B7010008B7010008B7010008EF
:10011000B7010008B7010008B7010008B7010008DF
:10012000B7010008B701000889050008B7010008F9
:10013000B7010008B7010008B7010008B7010008BF
:10014000B7010008B7010008B70100081D25000825
:10015000B7010008B7010008B7010008B70100089F
:10016000B7010008B7010008B7010008B70100088F
:10017000B7010008B7010008B7010008000000003F
:10018000B7010008B7010008DFF80CD000F0AAF8AA
:100190000048004755430008F8860020064880477D
:1001A00006480047FEE7FEE7FEE7FEE7FEE7FEE75C
:1001B000FEE7FEE7FEE7FEE73127000889010008B9
:1001C0002DE9F05F0546002092469B46884606468C
:1001D000814640241BE0284641464746224600F01F
:1001E00070F853465A46C01A914110D3114618462A
:1001F000224600F057F82D1A67EB01084F462246B9
:100200000120002100F04EF817EB00094E41201E9E
:10021000A4F10104DFDC484631462A464346BDE8E6
:10022000F09F40EA01039B0703D009E008C9121FB1
:1002300008C0042AFAD203E011F8013B00F8013BA0
:10024000521EF9D27047D2B201E000F8012B491ECC
:10025000FBD270470022F6E710B513460A46044663
:100260001946FFF7F0FF204610BD421C10F8011B95
:100270000029FBD1801A704730B50B46014600209B
:100280002022012409E021FA02F59D4205D303FA58
:1002900002F5491B04FA02F52844151EA2F10102D9
:1002A000F1DC30BD202A04DB203A00FA02F1002004
:1002B00070479140C2F1200320FA03F319439040A4
:1002C0007047202A04DB203A21FA02F0002170470F
:1002D00021FA02F3D040C2F12002914008431946AE
:1002E00070470000064C074D06E0E06840F001034F
:1002F00094E8070098471034AC42F6D3FFF748FF64
:10030000344400085444000870B58C1810F8015BA0
:1003100015F0070301D110F8013B2A1106D110F89E
:10032000012B03E010F8016B01F8016B5B1EF9D1A2
:100330002B0705D40023521E0DD401F8013BFAE728
:1003400010F8013BCB1A921C03E013F8015B01F893
:10035000015B521EF9D5A142D8D3002070BD10B563
:100360000146806B026C12F0500F05D0026CD20671
:1003700026D500F00BFA10BD016C41F40071016448
:1003800001688A6812F0405F17D1027EAAB9CA6A72
:1003900012F4700F02D08A6852050ED44A6822F017
:1003A00020024A60016C21F480710164016CC9046F
:1003B00003D4016C41F00101016400F0E5F910BDC6
:1003C000806BC26CBDE810400846104710B5806BCA
:1003D00040210164416C41F00401416400F0D6F910
:1003E00010BD10B5806B00F0D0F910BD464910B5B6
:1003F0004A6822F440324A604A6843681A434A60B5
:1004000001684A6822F480724A6001684A68036998
:1004100042EA03224A6001684A6822F040724A6058
:1004200001684A6883681A434A6001688A6822F44E
:1004300000628A6001688A68C3681A438A60816AB8
:100440006FF07062D14201688A6822F070628A603F
:1004500001688A680CD0836A1A438A6001688A68D6
:1004600022F040528A6001688A68C36A1A4301E038
:1004700022F040528A6001688A6822F002028A6093
:1004800001688A68037E42EA43028A6090F820107D
:10049000002901684A680FD042F400624A6001688E
:1004A0004A6822F460424A6001684A68174C436A0D
:1004B00004EB43331A4301E022F400624A6001680E
:1004C000CA6A22F47002CA620168CA6A838B104C3D
:1004D00004EB03531A43CA6201688A6822F400726B
:1004E0008A6001688A6890F8303042EA43228A6064
:1004F00001688A6822F480628A6001688A684069BB
:1005000042EA8020886010BD0023014000E0FFFF28
:100510000000F0FFFEE70020704700207047000059
:1005200010B500220549064802F09EFA0349044826
:10053000403902F093FA002010BD0000B88000207E
:10054000D477002010B50146034802F087FA02482C
:1005500002F069FA002010BDD4770020094A10B5D6
:10056000D2F89022D2F8EC200AB1012010BD0A4640
:100570000146044802F078FABDE81040014802F054
:10058000D0BA0000D4770020014800F08BBA0000F8
:100590007477002001681823CAB2103AB2FBF3F254
:1005A000054B6FF30901032A9B5CC36500D9091D44
:1005B00081650846704700001C44000810B50146DC
:1005C00000208B698A6A4FF0C07453B1B3F5005FA5
:1005D00015D072B1012A0CD0022A0AD0032A09D1FF
:1005E00004E01AB1012A06D0022A03D1C96AC9015E
:1005F00000D5012010BDC96AA142FAD010BD002A61
:10060000F7D0012AF2D0022AF3D0032AF3D010BD8A
:1006100030B50468256825F480252560046863608A
:100620008368402B036803D099600068C26030BDC6
:100630009A600068C16030BD7047704778B500248B
:10064000009490F83C20012A19D0012280F83C2027
:100650000A6807230568092A13D9EE680A3A02EBEB
:10066000420293409E43EE600B788A680A3B03EB9C
:1006700043039A400368DD682A43DA6010E00220F1
:1006800078BD2E6902EB420293409E432E610B78A7
:100690008A6803EB43039A4003681D692A431A6181
:1006A0004A681F23072A13D205686E6B521E02EB9D
:1006B000820293409E436E630B790A885B1E92B25E
:1006C00003EB83039A4003685D6B2A435A6327E078
:1006D00005680D2A12D22E6BD21F02EB82029340C4
:1006E0009E432E630B790A88DB1F92B203EB8303D0
:1006F0009A4003681D6B2A431A6311E0EE6A0D3AB3
:1007000002EB820293409E43EE620B790A880D3B16
:1007100092B203EB83039A400368DD6A2A43DA62EC
:10072000164B0568144A9D4206D10D68122D03D15F
:10073000556845F48005556005689D4218D10B68E1
:10074000102B01D0112B13D1536843F400035360D5
:10075000096810290CD10A490A4A0968B1FBF2F16B
:1007600001EB8101490000E0491E00910029FBD105
:1007700080F83C40002078BD00230140002001406B
:100780007C00002040420F0070477047704770B5F2
:1007900004004FF0000503D0206C002610B107E0E4
:1007A000012070BD204600F01DF8666484F83C60AE
:1007B000206CC00610D4206C20F4885040F0020059
:1007C00020642046FFF712FE6664206C20F00200D1
:1007D00040F00100206400E0012584F83C602846D8
:1007E00070BD000070B586B0064614216846FFF75C
:1007F00031FD2149306888423CD1204800250168FC
:1008000041F400710160006800F4007005901B481D
:100810001438016841F0010101600068694600F088
:1008200001000590802000900320CDE901051448C7
:1008300000F0BCFA144C134820604FF00070C4E97B
:100840000105C013C4E90350400060618000A0614D
:100850004011E06100022062042060620120C4E9CE
:100860000A052046256300F0EDF908B1FFF7E5FE23
:10087000B463A66306B070BD002101404438024055
:10088000000002404064024074770020F8B50E4634
:1008900000210446009190F83C00012807D0012077
:1008A00084F83C0020688368DB0702D011E0022056
:1008B000F8BD836843F0010383603748374B006815
:1008C000B0FBF3F000EB400000E0401E0090002879
:1008D000FBD120688368DB075CD0236C40F20165A4
:1008E000AB4343F4807323644068400505D5206C16
:1008F00020F4005040F480502064206CC00404D5E3
:10090000606C20F00600606400E0616484F83C10D4
:10091000A16B2448224DC863A16B23480864A16BD6
:100920002248C86421686FF022000860206841688E
:1009300041F0806141602068816841F4807181608C
:100940002168134632464C31A06B00F0E5F9686827
:100950001749C006206806D088421BD1816811F073
:10096000405F13D016E08842F8D0124A904203D17B
:10097000D1F80423D206F1D00F4A90420AD1D1F81F
:10098000041301F01F011029E8D303E0816841F04E
:10099000804181600020F8BD7C00002040420F00B3
:1009A000002301405F030008E3030008CD030008B3
:1009B00000200140002101400022014010B5044602
:1009C000002094F83C1001290CD0012184F83C103F
:1009D00021688A6822F001028A6021688A68D20749
:1009E00002D013E0022010BD886820F48070886077
:1009F000A06B00F00FF821684A6822F080624A601C
:100A0000216C21F4885141F001012164002184F816
:100A10003C1010BD2DE9F0410446876D00F0AEFAA0
:100A2000064694F835000025022806D0802060652F
:100A300084F834500120BDE8F0812068016821F07D
:100A4000160101602068416921F080014161206C3C
:100A500008B9A06C20B12068016821F0080101608C
:100A60002068016821F0010101600BE000F086FAC6
:100A7000801B052806D92020606504F8345F032018
:100A80006070D8E720680068C007EFD194F85C1068
:100A90003F208840B86004F8345F01206070002077
:100AA000C9E700002DE9F84304464FF00009CDF8EE
:100AB000009063484FF41651A56D0068B0FBF1F744
:100AC0002E6894F85C10082000FA01F131420FD032
:100AD00021680A6852070BD50A6822F004020A60EE
:100AE00094F85C108840A860606D40F0010060657B
:100AF00094F85C104FF0010808FA01F0304208D079
:100B000021684969090604D5A860606D40F00200BB
:100B1000606594F85C1004208840304208D0216859
:100B20000968890704D5A860606D40F0040060651D
:100B300094F85C1010208840304218D02168096871
:100B4000090714D5A86020680168490304D5006826
:100B5000000308D5A16C07E00168C90503D401684A
:100B600021F008010160216C09B12046884794F802
:100B70005C1020208840304231D021680968C906C5
:100B80002DD5A86094F8350005282068016806D0A6
:100B9000490347D5006800031DD4616C1CE021F0B7
:100BA000160101602068416921F080014161206CDB
:100BB00008B9A06C20B12068016821F0080101602B
:100BC00094F85C103F208840A86084F8349084F842
:100BD0003580216D1FE0E16B09B120468847606DCB
:100BE00000282BD0606DC00714D0052084F8350094
:100BF0002068016821F0010101600098401C00900C
:100C0000B84203D820680068C007F6D184F8349051
:100C100084F83580E16C002910D001B02046BDE891
:100C2000F04308470168C905D5D4016821F01001D7
:100C3000016084F8349084F83580CCE7BDE8F8830F
:100C40007C0000202DE9F041044600F097F90646AB
:100C50005CB1002584F83450022084F83500206807
:100C6000016821F0010101600DE00120BDE8F08183
:100C700000F084F9801B052805D920206065032039
:100C800084F83500F2E720680068C007F0D12268D8
:100C9000116820480140D4E901031843D4E9033620
:100CA0003343184363691843A3691843E36918433E
:100CB000236A18430843616A042903D1D4E90B135A
:100CC00019430843106020684069666A20F00701F4
:100CD00030460E43012704280CD1A06A0643E06A7F
:100CE00040B12046FFF76AFC20B14020606584F8DF
:100CF0003570BAE7206846612046FFF74BFC94F850
:100D00005C203F2191408160656584F8357000204A
:100D1000ACE700003F8010F02DE9F0410446866DFD
:100D200090F83400002501280DD0012084F834000B
:100D300094F835700020012F07D084F83400022584
:100D40002846BDE8F0810220FBE7022784F83570D1
:100D500060652046FFF75CFC94F85C103F208840FB
:100D6000B0602068016841F016010160206C20B17C
:100D70002068016841F0080101602068016841F0C5
:100D800001010160DCE7000070B5044600F0F6F8F0
:100D90000546601C02D004480078044400F0EEF8D8
:100DA000401BA042FAD370BD700000202DE9F84F1F
:100DB00000224FF0010803254FF00F0E0B6808FAD0
:100DC00002F42340A3426ED14E68012E05D0022EBC
:100DD00003D0112E01D0122E12D186684FEA420C98
:100DE00005FA0CF7BE43CF6807FA0CF73743876064
:100DF0004668A6430C79C4F300149440344344601D
:100E0000C668570005FA07FC8C6826EA0C06BC4049
:100E10003443C4604C68022C01D0122C13D1D40886
:100E200000EB8404A346D4F8209054074FEAD46A18
:100E30000EFA0AF629EA06090E6906FA0AF646EAE1
:100E40000906CBF8206006680C7926EA0C0604F047
:100E50000304BC40344304604C68E40065D5364C60
:100E6000266846F480462660246822F0030604F4CF
:100E700080440094314C3444A446D4F80848960782
:100E8000370F0EFA07F6B4432D4EB04201D10026BB
:100E900024E02C4EB04201D101261FE02A4EB04280
:100EA00002D102261AE040E0284EB04201D10326CA
:100EB00014E0274EB04201D104260FE0254EB04287
:100EC00001D105260AE0244EB04201D1062605E0F4
:100ED000224EB04201D1072600E00826BE4026433C
:100EE000CCF808681E4E34684F689C43FF0300D559
:100EF0001C4334601A4C241D26684F689E43BF0370
:100F000000D51E432660164E083634684F689C4351
:100F1000FF0200D51C433460114E0C3634684F6814
:100F20009C43BF0200D51C433460521C102AFFF4BE
:100F300045AFBDE8F88F0000443802400030014062
:100F4000000002400004024000080240000C024081
:100F5000001002400014024000180240001C024031
:100F6000003C0140426931EA020200D1090481617A
:100F700070470AB1816170470904FBE70148806846
:100F80007047000070000020024881680278114418
:100F900081607047700000200B4810B5016841F473
:100FA00000710160016841F480610160016841F4F1
:100FB00080710160032000F06FF8002000F006F857
:100FC00000F024F8002010BD003C024070B50D4D2B
:100FD00004464FF47A712878B1FBF0F00A490968A9
:100FE000B1FBF0F000F096FF48B9102C07D20022B8
:100FF0002146501E00F030F800206C6070BD0120CA
:1010000070BD0000700000207C0000200A4808B578
:10101000016841F480410160006800F48040009064
:101020000548001F016841F080510160006800F030
:101030008050009008BD000044380240002809DBC1
:1010400000F01F02012191404009800000F1E020E2
:10105000C0F8001170470000F0B40E4B1B680C463E
:10106000C3F30223C3F10705042D00D90425191D7C
:10107000072901D2002300E0DB1E012606FA05F154
:10108000491E214099409E40761E16403143F0BCD7
:1010900002F072BF0CED00E0064900F0070208689C
:1010A0004FF6FF03184040EA0220034A104308604D
:1010B000704700000CED00E00000FA057047006882
:1010C000416200207047F0B50368586A39B19C6AE4
:1010D0004FF4827600EB144400204D1E0AE040EAF3
:1010E000024098620FE006EB8007DF59401C04EBDA
:1010F0001744C0B2A842F6D344EA02404FF48072CB
:1011000002EB810158500020F0BDD0F8040401F03A
:101110005ABFC1EBC10200EB8202D0F80404926C0A
:1011200001F0ADBEC1EBC10200EB8202D0F80404B5
:10113000D2F8082201F006BFD0F8040401F045BF40
:1011400070B504460B0601F00F00C0EBC00104EBC4
:1011500081014FF001024FF0000503D581F83D20D9
:101160003C3103E081F8FD5101F5FE71087094F8FF
:10117000BC03012808D084F8BC23206802F09CFA44
:1011800084F8BC53002070BD022070BD70B50446C9
:1011900001F00F006268904201D9012070BD0B067A
:1011A00001F00F01C1EBC10104EB81014FF001021D
:1011B0004FF0000503D581F83D203C3103E081F874
:1011C000FD5101F5FE718D70087094F8BC03012883
:1011D00008D084F8BC23206802F04AFC84F8BC5391
:1011E000002070BD022070BD01F00F01C1EBC101F4
:1011F00000EB8100D0F8140270472DE9F04104465D
:101200000F0601F00F00C0EBC00104EB81014FF0AD
:1012100001064FF0000503D581F83D603C3103E045
:1012200081F8FD5101F5FE7108708A60CB704A7833
:1012300002B1C880022B00D10D7194F8BC030128C3
:1012400009D084F8BC63206802F086F9284684F847
:10125000BC53BDE8F0810220FBE770B50C4601F0FD
:101260000F05C5EBC50100EB8101C1F81032C1F8D3
:1012700008220023C1F8143281F8FD3181F8FC51B5
:10128000036901F5FE71012B00D10A612207027C7E
:10129000006803D002F044FC002070BD02F030FB77
:1012A000FAE770B504460D4601F00F006168884208
:1012B00001D9012070BD29064FF000064FF0010250
:1012C00007D5C0EBC00104EB810181F83D203C3122
:1012D00007E0C5EBC50104EB810181F8FD6101F573
:1012E000FE718A70087094F8BC03012807D084F856
:1012F000BC23206802F0E8FB280702D007E00220A8
:1013000070BD217C04F57172206802F085FB84F8C1
:10131000BC63002070BD70B50C4601F00F05C5EB35
:10132000C50100EB81010B658A6400234B65012335
:1013300081F83D3001F83C5F0369012B00D10A615F
:101340002207027C006803D002F0EAFB002070BD97
:1013500002F0D6FAFAE700002DE9FC5F05680446C2
:10136000284602F006FD00287ED1206802F02DFDFF
:10137000002879D0206802F028FD800704D5206875
:10138000416901F002014161206802F01EFD010384
:1013900004F571704FF0010A4FF0080B009075D5FD
:1013A0000026206802F0F0FC0746DFF808946BE0A6
:1013B000F80767D0F1B2206802F0FFFC8046C00752
:1013C00007D005EB4611C1F808AB3146204601F0C5
:1013D000ABF85FEA087032D52068016C00EB46106C
:1013E0000191D0F8081B2269012A019A0FD0F24B13
:1013F0009A4214D1090403D54FF40041C0F8081BE8
:10140000204600F0C9FA206901280FD013E04A45B0
:1014100005D9090403D54FF40041C0F8081B204644
:1014200000F0BAFA01984845EDD804E0206801219F
:10143000009A02F0F1FA05EB4611C1F808BB5FEA29
:10144000C86004D505EB46111020C1F8080B5FEA0F
:1014500088600ED52069012804D120680121009AF6
:1014600002F0DAFA202100E0A1E105EB4610C0F815
:10147000081B5FEA884005D505EB46104FF4005184
:10148000C0F8081B7F08761C002F91D1206802F05D
:101490009CFC40034FF000095FD5206802F06DFC12
:1014A0000746002657E0F80753D0F1B2206802F053
:1014B00072FC8046C00726D006F00F020AFA02F03E
:1014C000D5F834288243C5F8342805EB4610C0F817
:1014D00008A92069012807D1C6EBC60004EB8000EB
:1014E000D0E9112111448164F1B22046FFF711FEC9
:1014F0002069012807D136B9206D20B92068012163
:10150000009A02F089FA5FEA087003D505EB4611EC
:10151000C1F808B95FEAC86004D505EB4611102090
:10152000C1F808095FEA486004D505EB4610402180
:10153000C0F808195FEA887004D505EB461002214F
:10154000C0F808195FEA086003D53146204601F06B
:1015500059F87F08761C002FA5D1206802F035FCD1
:10156000002811DAD5F8040820F00100C5F80408B5
:1015700094F8F40301282BD0204600F0F1F92068FC
:10158000416901F000414161206802F01EFC000544
:101590000BD5D5F80808C00702D0204600F024FA81
:1015A0002068416901F400614161206802F00DFC8E
:1015B000C00461D5D5F8040820F00101C5F804186D
:1015C0001021206802F0B6FB00214FF67F321AE0AE
:1015D00084F8F49300212046FFF770FDCFE700BFA9
:1015E00005EB4110C0F80829D0F8003923F40013A6
:1015F000C0F80039C0F8082BD0F8003B23F40013E2
:10160000C0F8003B491C60688842E9D8D5F81C083E
:1016100040F00111C5F81C18206B002828460DD099
:10162000D0F8840840F00B00C5F88408D5F84408C9
:1016300040F00B012846C5F844180DE0D0F8140816
:1016400042F22B010843C5F81408D5F8100840F001
:101650000B012846C5F81018D0F8000820F4FE61E8
:10166000C5F80018217C2068009A02F0D5F920689E
:10167000416901F480514161206802F0A6FB8004B9
:1016800015D5206801F0A8FF206802F065FBE06036
:1016900000F05CFA0146227B206802F0D1FB204674
:1016A00000F048F92068416901F400514161206867
:1016B00002F08BFBC00634D52068816921F010014F
:1016C00081612F6A07F00F00C0EBC00004EB8006B9
:1016D000C7F3434006F5FE76022802D0062811D053
:1016E0001AE047F6F070074216D0C7F30A12174601
:1016F0002846F16802F06DFBF0683844F060B0698C
:10170000384408E008222846009902F062FBB069DC
:10171000C7F30A110844B0612168886940F01000DD
:101720008861206802F051FB000707D5204600F0D1
:101730001BF92168486900F008004861206802F040
:1017400044FBC00208D50021204600F037F821688C
:10175000486900F480104861206802F036FB80027E
:1017600008D50021204600F02DF82168486900F4D2
:1017700000104861206802F028FB400007D5204691
:10178000FFF7C3FC2068416901F080414161206896
:1017900002F01BFB40070AD520684568680702D5A0
:1017A0002046FFF7C9FC2068416829434160BDE835
:1017B000FC9F00000A30544F0A31544FD0F8040403
:1017C00001F052BCD0F8040401F050BC2DE9F04106
:1017D0008AB0040005D094F8BD032668002520B126
:1017E00008E001200AB0BDE8F08184F8BC5320462F
:1017F00000F05EF8032084F8BD03F06BC00500D450
:101800002561206802F076F804F11001282288464C
:101810006846FEF706FD94E80F0001F0F7FE022689
:10182000C8BB0021206802F0E2FA002001270EE088
:10183000C0EBC00104EB810181F83D7001F83C0F61
:10184000C880CD708D60CD60401CC0B24D616168B4
:101850008142EDD8002011E0C0EBC00104EB810112
:1018600081F8FD5181F8FC0181F8FF51C1F8045263
:10187000C1F80852401CC0B2C1F8105261688142E0
:10188000EAD8282241466846FEF7CBFC94E80F00D0
:1018900001F06AFF10B184F8BD63A2E784F8385004
:1018A00084F8BD73206801F053FF00209AE7000020
:1018B00010B586B0044614216846FEF7CBFC2068BC
:1018C000B0F1A04F2FD119480021026842F0010267
:1018D0000260006800F0010005904FF4C0500090D5
:1018E0000220CDE90101032003900A2004906946FB
:1018F0000F48FFF75BFA0D48001D016841F08001B9
:1019000001600A481430016841F4804101600068B8
:10191000002200F48040059011464320FFF79CFB15
:101920004320FFF78BFB06B010BD000030380240AB
:101930000000024070B50446C068012570B102285D
:1019400001D0FEF77AFE2946D4F8040401F0DFFB4B
:10195000D4F80404BDE8704001F09FBB0025F2E715
:10196000D0F8040401F0C1BBD0F8040401F0C3BBFB
:1019700010B5044690F8BC0301280BD0012084F870
:10198000BC0384F83810206802F048FA002084F87C
:10199000BC0310BD022010BDD0F8042400F5717105
:1019A000104601F0C0BB10B50446006894F8BC13A3
:1019B000012906D0012184F8BC13A16A012902D0B3
:1019C00008E0022010BDA169012903D0816B41F418
:1019D00080318163206801F0AFFE206802F094F945
:1019E000002084F8BC0310BD10B50446D0F80404F0
:1019F00001F0D8FB2068D0F8001E41F00101C0F8CA
:101A0000001E206A002804D00248016841F0060147
:101A1000016010BD10ED00E02DE9F0470E46050015
:101A200065D0DFF81481D8F80000F7B200F00F009D
:101A3000B04207D288F80070D8F8000000F00F001C
:101A4000B04254D128683D4C810712D5400703D5D8
:101A5000206840F4E05020602878000703D5206813
:101A600040F4604020602068A96820F0F00008433E
:101A700020602878C0072DD03049686808390128CF
:101A800012D0022813D0032811D009688907002931
:101A90002DDA216821F0030101432160FFF76EFA7E
:101AA000814641F2883A0EE009688903EFE7096848
:101AB0008901ECE7FFF762FAA0EB0901514502D971
:101AC0000320BDE8F0872068696800F00C00B0EBE7
:101AD000810FEFD1D8F80010404601F00F01B1425C
:101AE00007D90770006800F00F00B04201D0012054
:101AF000E7E72878400705D52068E96820F4E0503A
:101B0000084320602878000706D52068296920F45A
:101B1000604040EAC100206000F01EF82168084AD9
:101B2000C1F30311515CC8400649086006480068CB
:101B3000FFF74CFA0020C4E7003C0240083802409E
:101B4000244400087C000020740000200148006844
:101B5000704700007C000020154810B5006810F0A8
:101B60000C02144813D04110042A0FD0082A0ED1B9
:101B70000F4C241F2268236802F03F025B0207D546
:101B80002068C0F38810A0FB010106E0084610BDE4
:101B90002168C1F38811A1FB00010023FEF710FBAF
:101BA0002168C1F30141491C4900B0FBF1F010BDAF
:101BB000083802400024F4002DE9F84F040076D0E4
:101BC0002078DFF838A3CE4DC00749D0DAF80010EE
:101BD0005046C1F38101012908D00068C0F381009B
:101BE00002280AD1281D0068400206D52868800313
:101BF00036D560680028E2D032E06068B0F5803FFA
:101C000010D0B0F5A02F286810D020F480302860C4
:101C1000286820F4802028606068A0B1FFF7AEF942
:101C200006460CE0286840F48030F4E740F4802059
:101C30002860F7E7FFF7A2F9801B642873D82868AB
:101C40008003F7D50CE0FFF799F9064605E000BFE1
:101C5000FFF794F9801B6428F0D828688003F7D434
:101C60002078DFF8A08280074FF000093ED5DAF82F
:101C70000010504611F00C0F09D00068C0F381002D
:101C800002280BD19D48001F0068400206D4286836
:101C9000800715D5E068012809D111E0E068B8B1E6
:101CA0000120C8F80000FFF769F9064605E020E1C9
:101CB000FFF764F9801B0228C0D828688007F7D591
:101CC0002868216920F0F80040EAC10028600DE092
:101CD000C8F80090FFF752F9064604E0FFF74EF906
:101CE000801B02281FD828688007F7D420780007B7
:101CF00022D5824E844861696C3671B10121016040
:101D0000FFF73CF9074604E0FFF738F9C01B02284B
:101D100009D830688007F7D50EE0C0F80090FFF7CB
:101D20002DF9074605E082E0FFF728F9C01B0228DD
:101D30007DD830688007F7D42078400768D5DFF871
:101D4000BCB100270BF1380BDBF80000C0000BD44E
:101D5000DBF8001041F08051CBF80010DBF80000F8
:101D6000012700F080500090684E3068C00510D404
:101D7000306840F480703060FFF700F9009005E0B3
:101D8000FFF7FCF80099401A022850D83068C005C7
:101D9000F6D55A4EA068683601280FD0052830685D
:101DA00010D020F001003060306820F00400306076
:101DB000A068B8B1FFF7E2F800900FE0306840F09B
:101DC0000100F4E740F004003060F7E7FFF7D6F8D1
:101DD0000099411A41F28830814266D83068800704
:101DE000F4D50EE0FFF7CAF8009007E0FFF7C6F859
:101DF0000099411A41F28830814256D830688007F4
:101E0000F4D42FB1DBF8001021F08051CBF8001092
:101E1000A069D0B3DAF800205146C2F38102022A49
:101E20004AD00228484607D0C8F8600000E03CE0ED
:101E3000FFF7A4F804463BE04746C8F86000FFF708
:101E40009DF8064605E000BFFFF798F8801B0228C2
:101E50002BD828688001F7D4D4E907010843A16A88
:101E60002B4A490802EB0141626A41EA82110843A8
:101E700094F82C1040EA01612048001F0160012005
:101E80003866FFF77BF8044605E034E0FFF776F8A4
:101E9000001B022809D828688001F7D52BE000BF75
:101EA000FFF76CF8001B022802D90320BDE8F88F69
:101EB00028688001F4D41EE00128F7D00868E269A0
:101EC00000F48001914214D1226A00F03F01914256
:101ED0000FD147F6C071626A0140914209D1A26AEE
:101EE00000F44031914204D1E16A00F07060884210
:101EF00001D00120DAE70020D8E7000008380240CE
:101F00000038024000004742800E47420070004007
:101F10000000FFFF10B5401EB0F1807F01D301200B
:101F200010BD4FF0E02460610F21601702F024F82B
:101F30000020A06107202061002010BD704770477D
:101F400070B590F83C20012A32D0012480F83C4042
:101F5000022280F83D2003685A689D6822F07006CE
:101F60000A6832435A60134B02689A4214D0B2F1A5
:101F7000804F11D0104B9A420ED0104B9A420BD08A
:101F80000F4B9A4208D00F4B9A4205D00E4B9A4203
:101F900002D00E4B9A4204D1496825F080031943C0
:101FA000916080F83D40002180F83C10084670BDEB
:101FB000022070BD00000140000400400008004005
:101FC000000C0040000401400040014000180040A7
:101FD00010B5040003D094F83D0010B107E00120D3
:101FE00010BD002084F83C00204600F00DF80220CF
:101FF00084F83D00211D206800F0AEFB012084F82C
:102000003D00002010BD000008B500680B49884263
:1020100012D10B48016841F0020101600068002202
:1020200000F00200009011461D20FFF715F8BDE8F2
:1020300008401D20FFF702B808BD00000004004062
:10204000403802400168CA6842F00102CA60006874
:10205000816801F00701062903D0016841F0010100
:1020600001600020704770B5044690F83C000128DC
:1020700017D0012584F83C50022084F83D002068E8
:10208000826822F0770222F47F428260086850283A
:1020900030D00DDC20284DD005DC98B310283BD182
:1020A00048E0022070BD302844D0402834D139E0C7
:1020B000602828D0702806D0B0F5805F2CD0B0F50D
:1020C000005F29D10AE0CB68D1E90121206800F046
:1020D000A7FB2068816841F0770109E0CB68D1E96E
:1020E0000121206800F09CFB2068816841F4804158
:1020F000816011E0CA684968206800F0A3FB5021A4
:10210000206807E016E0CA684968206800F0ABFB69
:102110006021206800F08EFB84F83D50002084F898
:102120003C0070BDCA684968206800F08BFB402104
:102130002068EFE7226801461046EBE7704770B56C
:102140000446006801694FF00005C943890715D4AA
:10215000C168C943890711D4E91E016101202077B4
:10216000206880698007204602D0FFF7E7FF04E07F
:1021700000F098F8204600F096F82577206801696D
:10218000C943490717D4C168C943490713D46FF03D
:1021900004010161022020772068806910F4407FEB
:1021A000204602D0FFF7CAFF04E000F07BF820468B
:1021B00000F079F8257720680169C943090716D42A
:1021C000C168C943090712D46FF0080101610420F6
:1021D00020772068C0698007204602D0FFF7AEFF55
:1021E00004E000F05FF8204600F05DF825772068F5
:1021F0000169C943C90617D4C168C943C90613D4C4
:102200006FF010010161082020772068C06910F488
:10221000407F204602D0FFF791FF04E000F042F833
:10222000204600F040F8257720680169C943C907B6
:1022300008D1C168C943C90704D1891E016120467C
:1022400000F032F820680169C943090609D4C16861
:10225000C943090605D46FF0800101612046FFF7EC
:102260006DFE20680169C943490609D4C168C943A4
:10227000490605D46FF040010161204600F06EF878
:1022800020680169C94389060BD4C168C94389061E
:1022900007D46FF0200101612046BDE87040FFF7D0
:1022A0004EBE70BD70477047F8B50068234988423C
:1022B00042D1234C47F23055224F2068224EA8428B
:1022C00015D209143846FEF74DFE012204F10C0127
:1022D000A6F1A600FEF7DAFA04F10C0001782068F6
:1022E0003154401C2060A6F1A600FEF767FB606831
:1022F000401C606064281FD3A068A8421CD24FF421
:1023000000413846FEF72EFE10A00090A06810A2F3
:1023100010A1335C0C481E3801F01AFE0A481E3822
:10232000FDF7A3FF014608481E38FEF717F9002005
:102330006060A068401CA060F8BD00000004004080
:1023400000000020000C0240420200203B0D0A0069
:102350002400000025732534642573007047FEE7D0
:10236000F0B500230A24302537261F4611E000BFB0
:10237000B4EB107F02D905EB107C01E006EB107C7A
:1023800001F813C001EB430C00015B1C8CF80170D9
:10239000DBB29342ECD3F0BD7FB500241248009429
:1023A000019402940F490394C0E900144FF00071A6
:1023B00004618160047680F820400C49C0E90A1469
:1023C0000125C561C46080F830504561FEF7DFF932
:1023D0000720CDE90005694602940348FEF72EF96F
:1023E0007FBD0000002101409C0100200100000F82
:1023F000F0B587B014216846FDF72CFF194800247A
:10240000016841F080010160016801F080010591DF
:10241000016841F001010160016801F001010591CD
:10242000016841F00801016000680F4F00F00800EA
:102430004FF470460590002231463846FEF799FD6C
:102440000125CDE90054694608480294FEF7AEFC28
:102450000096CDE90154694638460394FEF7A6FC80
:1024600007B0F0BD30380240000C024000000240CE
:1024700010B586B00024124800940194029403948D
:1024800004940E49059401600121C0E901144FF440
:102490007A71C0E903148461FFF79AFD4FF480500C
:1024A000009069460648FFF7DEFD049404A904483D
:1024B0000594FFF745FD06B010BD00000004004084
:1024C000E401002010B500220F49104800F0B0FCD4
:1024D00008B1FEF7B2F80E490C4800F089FE08B1C9
:1024E000FEF7ABF80B49094800F0B0FA08B1FEF767
:1024F000A4F8064800F0D2FE002803D0BDE8104042
:10250000FEF79BB810BD000010000020D47700201B
:102510005C01002060000020FEE770470148FEF7E4
:102520001BBF0000707A00202DE9F04104460068CE
:102530000E46016C00EB4615D5F8080B27692023E1
:102540004FF40042012F08D02C4FB9424FD1010463
:1025500049D500BFC5F8082B4DE0DFF8A4C05FEAFD
:10256000007E04F5717711D5614503D9000401D5CA
:10257000C5F8082B2046FFF70FFA3A4601212068DC
:1025800001F04AFA0820C5F8080B34E05FEA806ED3
:1025900002D5C5F8083B2EE010F0280F2BD161457D
:1025A00001D90004D6D4C6EBC60004EB8000D5F8F0
:1025B000102BD0F80412C2F312028A1AC0F81422A7
:1025C000D0F808221144C0F80812F1B22046FEF7F4
:1025D000A9FD86B9D4F8100268B93A4601212068ED
:1025E00001F01AFA07E0800601D5C5F8083BF1B200
:1025F0002046FEF797FD0020BDE8F0810A31544FD8
:102600000A30544F2DE9F84F0E46C1EBC60100EBDE
:10261000810481460568D4E914103C34884202D90B
:102620000120BDE8F88F081AA168814200D208464F
:10263000C01C870805EB46181BE000BFA0EB010A91
:10264000A068504500D282460AF10300870899F835
:10265000100000901FFA8AF3F2B22846E16801F0F8
:1026600063FCE16801EB0A00E060A16901EB0A008C
:10267000A061D8F8180980B2B84205D3D4E90501A1
:10268000814201D20028D9D1D4E90501884208D875
:1026900006F00F0101208840D5F834188143C5F8B1
:1026A00034180020BDE770477047FEF76DBC00008E
:1026B00030B593B030216846FDF7CCFD14210CA84D
:1026C000FDF7C8FD18480025016841F08051016000
:1026D000006800F0805011901448016841F4804176
:1026E00001600068022400F48040119001200090F5
:1026F000000401908001CDE90640042008904820A4
:10270000CDE9090403200B906846FFF755FA0CA9A0
:102710000F2081E83100E002CDE90F0502210CA86D
:10272000FFF77AF913B030BD403802400070004026
:102730000548016841F47001016003494FF00060F1
:10274000803908607047000088ED00E00148FFF71D
:10275000F6BC0000E4010020F0B50268254C264DCF
:10276000264E274F274B4FF0804CA04209D06045A2
:1027700007D0A84205D0B04203D0B84201D0984259
:1027800004D122F0700E4A6842EA0E02A0421BD029
:10279000604519D0A84217D0B04215D0B84213D026
:1027A000984211D0184DA8420ED0184DA8420BD017
:1027B000174DA84208D0174DA84205D0164DA84283
:1027C00002D0164DA84203D122F44075CA682A43AC
:1027D0004D6922F080022A4302608A68C2620A6858
:1027E0008262A04201D0984201D1096901630121AE
:1027F0004161F0BD000001400004004000080040BD
:10280000000C004000040140004001400044014031
:102810000048014000180040001C0040002000401B
:1028200010B5846842EA032224F47F440A43224319
:10283000826010BD826822F070020A4342F00701F4
:102840008160704710B5036A046A24F001040462D1
:10285000846924F0F00444EA021423F00A020A43D3
:102860008461026210BD10B5036A23F01003036295
:102870008369046A23F4704343EA023224F0A0031C
:1028800043EA01118261016210BD2DE9F041D0F8E7
:102890009832D0F89022DAB101EB810400EB840485
:1028A0000025E6694EB1C1EBC10703EB87035B6C02
:1028B000B6FBF3F703FB176323B1C2F8EC5000201B
:1028C000BDE8F08100231A46E56100F074FCF6E7EC
:1028D0000220F5E770B50546D0F8904200F080FB85
:1028E000C4F8E400D5F8900248B1D5F89412D4F8B1
:1028F000DC00CA6804F1E4019047002070BD0220AA
:1029000070BD70B504460026812100F0AFFA0025A5
:1029100001212046E56200F0A9FA82212046C4F890
:10292000585100F0A3FA2564D4F8900248B1D4F8C5
:10293000940204F5247440688047206801F0E2FCAA
:102940002560304670BD10B5D0E9A44159B194F866
:10295000D800FF2807D08B6894F8D92021469847E3
:10296000FF2084F8D800002010BD00000A2101805B
:1029700000487047840000204321018000487047D0
:10298000D4000020432101800048704790000020BF
:1029900043210180004870471801002070B50446AB
:1029A0000026007C012580B340230222812120469D
:1029B00000F05EFB4023E56202220121204600F088
:1029C00057FB0823032282212046C4F8585100F007
:1029D0004FFBF420256401F0EBFCC4F89002F0B149
:1029E0000546D4F89402006880470020C5F8EC0042
:1029F000C5F8F000207CD5F8DC2090B140230121FF
:102A0000204600F041FB304670BDFFE7D82302228C
:102A10008121204600F02CFBD823E562CCE701267B
:102A2000F1E7D823EBE710B5D0F8901261B1027C42
:102A3000002AD1F8DC2005D04023012100F024FB3E
:102A4000002010BDD823F8E7022010BD0246022066
:102A5000002902D00020C2F894127047D0F89002EA
:102A6000C0F8DC1000207047D0F8900240F8E01F5A
:102A70008260002070472DE9FC410546D0F8907235
:102A800000208DF80000ADF80400064608780C46DA
:102A900010F0600121D020293BD1E288AAB10006C4
:102AA000607807D5D5F894128B6839469847E28844
:102AB000394626E087F8D800A07987F8D900E2885F
:102AC0003946284600F069F828E0D5F89412607875
:102AD00000228B682146984720E0607820B10A28C0
:102AE00009D00B2815D110E095F87402032810D1F5
:102AF000022201A905E095F87402032809D10122F8
:102B00006946284600F063F808E095F87402032847
:102B100004D02146284600F035F802263046BDE8AC
:102B2000FC8110B5D0F8901299B1D1F8EC200AB11F
:102B3000012010BD0122C1F8EC2051F8E82F0263FA
:102B400031F8082993B20A68812100F034FB002093
:102B500010BD022010BD10B5D0F88C2252689047ED
:102B6000002010BD134610B50A46002100F08CFA73
:102B7000002010BD134610B50A46002100F01BFBD3
:102B8000002010BD10B50446802100F0F9FA20465F
:102B9000BDE81040002100F0F3BA10B50323C0F8DF
:102BA0004821C0F86C32C0F84C2113460A46002177
:102BB00000F06AFA002010BD10B505210023C0F80E
:102BC0006C121A46194600F05FFA002010BD10B5CD
:102BD0000223C261C0F86C32026213460A46002129
:102BE00000F0E9FA002010BD10B504210023C0F860
:102BF0006C121A46194600F0DEFA002010BD0000E3
:102C000010B50A46024903A000F0E2F8004810BDE2
:102C1000787E002043444320436F6E66696700005E
:102C200012200880004870473000002010B50A4686
:102C3000024903A000F0CCF8004810BD787E0020C7
:102C400043444320496E7465726661636500000009
:102C500004200880004870472C00002010B50A4668
:102C6000024903A000F0B4F8004810BD787E0020AF
:102C700053544D6963726F656C656374726F6E69EE
:102C80006373000010B50A46024903A000F0A0F8E3
:102C9000004810BD787E002053544D3332205669D1
:102CA000727475616C20436F6D506F727400000018
:102CB00010B51A2008800A480168001D0468001D2C
:102CC0000068081809D008220649FFF749FB0549A2
:102CD000042210312046FFF743FB0248801E10BD3E
:102CE000107AFF1F46000020F8B5044648880D46BC
:102CF000010A08294BD2DFE801F04A0409174A4AC1
:102D00004048D4F88812207C0A6832E0207C0226F1
:102D10000028D4F88C0205D0C16A6846884701466D
:102D2000467041E0816AF8E7C0B206282FD2DFE89A
:102D300000F003080D12171CD4F88812207C4A6892
:102D400017E0D4F88812207C8A6812E0D4F8881240
:102D5000207CCA680DE0D4F88812207C0A6908E05B
:102D6000D4F88812207C4A6903E0D4F88812207CC9
:102D70008A6969469047014616E0207C38B9D4F844
:102D80008C02416B68468847F5E7207C20B12946D4
:102D90002046FFF7F7FEF8BDD4F88C02016B6846B9
:102DA0008847014607204870BDF8000048B1EA880E
:102DB00052B1824200D90246ADF800202046FFF70A
:102DC00006FFE8880028E6D12046FFF70DFFF8BD92
:102DD00070B5002300281ED00446002502E06D1CBB
:102DE000EDB2641C2678002EF9D1022404EB4504D0
:102DF00014801278CA545B1C0322CA5400245B1C42
:102E000006E0CA545B1CDAB28C54521CD3B2401C8C
:102E10000278002AF5D170BD01004FF0000004D007
:102E2000012901D0022901D00220704701207047FA
:102E300010B580B1D0F88C3213B10023C0F88C32B9
:102E400009B1C0F88812012180F87412027000F0F4
:102E5000CBF8002010BD022010BD10B5D0F89802AC
:102E6000FEF794F9BDE81040FFF7D6BF10B5D0F8D3
:102E70009802FEF765F9BDE81040FFF7CDBF2DE9D8
:102E8000F0411746044651B1D4F88C0242691AB198
:102E900094F87402032851D00220BDE8F081D4F8E0
:102EA0006C32002504F11400022B03D0042B3AD01D
:102EB000C3B33CE0D0E903639E4207D9F11AC16075
:102EC0008AB239462046FFF755FE12E08068B0FB13
:102ED000F3F103FB110199B9984211D3D4F87012A0
:102EE00088420DD2002211462046FFF743FEC4F867
:102EF000705200231A461946204600F0C5F816E025
:102F0000D4F88C02C16829B194F87402032801D165
:102F1000204688478021204600F032F92046FFF7FE
:102F20004BFE04E0FFE78021204600F029F994F8E9
:102F30007802012804D184F8785201E020469047B5
:102F40000020AAE770B51546044649B1D4F88C02B2
:102F500082691AB194F87402032830D0022070BD3F
:102F6000D4F86C1204F5A070032902D005291ED0F4
:102F700027E0D0E903218A420BD9531AC3600846DF
:102F8000834200D303469AB229462046FFF7EAFD62
:102F900017E0D4F88C02016929B194F8740203286F
:102FA00001D1204688472046FFF71EFE09E0002099
:102FB0000146C4F86C02204600F0E2F801E0204629
:102FC0009047002070BD0020704710B5012180F8A7
:102FD0007412D0F88C22017952689047002010BDFD
:102FE000D0F89802FEF700B910B5017839BB154941
:102FF0000222C1F80404C0F898124FF0A040086003
:10300000042048600020C1E90320C1E906200862CD
:103010004862C86208630846FEF7D8FB08B1FDF7AE
:103020000CFB80210748FEF74AF8402200210548A2
:10303000FEF749F8802201210248FEF744F80020FB
:1030400010BD0000707A00200A0601F07F01D0F860
:103050009802C1EBC10100EB810002D590F83E005F
:10306000704790F8FE0170470020704700207047BD
:1030700010B51C461346D0F898022246FEF7BDF85C
:10308000BDE81040FFF7C8BE10B5D0F89802FEF7B3
:10309000E4F8BDE81040FFF7BFBE70B5002204465B
:1030A00040231146FFF7E4FF40260125C4F8506194
:1030B0003346002280212046C4F84451FFF7D8FF50
:1030C0006662A56184F874520020C4F86C026060E6
:1030D000C4F87C02D4F8900228B1D4F88C02002104
:1030E000426820469047002070BD90F8751280F825
:1030F00074120020704710B590F87412032904D19F
:10310000D0F88C12C96901B18847002010BD017444
:103110000020704710B5D0F89802FEF729FCBDE8F2
:103120001040FFF779BE70B5044600F520700546E3
:1031300000F04AF80120C4F86C02B4F88602C4F822
:10314000700294F8800210F01F010AD001290DD0FE
:10315000022910D000F08001204600F011F8002074
:1031600070BD2946204600F09EF8F8E72946204623
:1031700000F0CAF9F3E72946204600F01DF9EEE712
:1031800010B5D0F89802FEF78CF8BDE81040FFF7B4
:1031900043BE10B5D0F89802FEF705FCBDE810401C
:1031A000FFF73ABE90F8741280F87512042180F887
:1031B00074120020704710B5D0F89802FEF7ABF8F3
:1031C000BDE81040FFF728BE0A7802704A784270C6
:1031D0008A78CB7802EB032242800A794B7902EBA2
:1031E000032282808A79C97902EB0121C18070476C
:1031F0000246002011B1C2F88C12704702207047BD
:1032000010B5D0F88C2202241AB11268904700B988
:103210000024204610BD000070B50E461E4D897872
:1032200004462970012931D894F8740202280BD081
:1032300003280FD031462046FFF7A4FC297820460A
:10324000BDE87040FFF787BCD9B10320616084F806
:10325000740209E071B16068884212D0C1B22046A0
:10326000FFF779FC297861602046FFF7C9FF022843
:103270000CD006E0022084F8740220466160FFF75B
:103280006AFC2046BDE87040FFF7AEBC31462046E0
:10329000BDE87040FFF776BC8000002010B5FFF756
:1032A00078FF002010BD2DE9F0410A78002612F0C9
:1032B000600208D0202A01D0402A70D1D0F88C2298
:1032C000926890476DE04B78002201250A2B66D268
:1032D000DFE803F0405D6557650805652C29FFF7B9
:1032E00003FD5EE004468888D8B9C888C8B9488814
:1032F000802816D200F07F0794F87402032810D0BB
:1033000084F8767239462046FFF704FF2046FFF71F
:103310006BFC1FB1022084F8740242E084F87452FE
:103320003FE020463BE0FFF777FF3AE0CB88012BF8
:1033300035D190F87432012B04D0022B02D0032B2C
:103340002DD104E08260012200F1080116E0012283
:10335000011D13E090F87422012A03D0022A01D043
:10336000032A1CD1CA88022A19D1C560D0F87C1260
:1033700009B10321C160022200F10C01FFF727FC13
:103380000FE0498801290CD1C0F87C5211E090F877
:103390007432012B08D0022B06D0032B04D0FFF788
:1033A000F1FB3046BDE8F08149880129F9D1C0F828
:1033B0007C22FFF719FCF4E72DE9F0410A460446A8
:1033C00010780027097910F060030AD0202B01D073
:1033D000402B50D1D4F88C02114683682046984780
:1033E0008FE0C0F34110012806D05078D0B30128F7
:1033F0002AD003283FD107E0D4F88C021146836815
:103400002046BDE8F041184794F87402022802D023
:10341000032872D10AE071B380296ED02046FFF7ED
:10342000AFFE80212046FFF7ABFE6AE0508838B936
:1034300031B1802904D0D08810B92046FFF7A0FE12
:103440002046FFF7D1FB5CE094F874020228E2D03A
:10345000032852D1508898BB4806F1D02046FFF788
:10346000FCFCEDE7FFE794F874020026022803D085
:10347000032842D112E040E009B180293DD108067D
:1034800001F07F0000EB800004EB800101D51431D6
:1034900001E001F5A07102220E602AE0080601F0A9
:1034A0000F0000EB800004EB80000AD5806920B398
:1034B00001F07F0000EB800004EB800514350BE089
:1034C0001FE0D0F84401C0B101F07F0000EB8000A4
:1034D00004EB800505F5A07541B1802906D0204692
:1034E000FFF7B2FD10B10120286000E02E6002223B
:1034F00029462046FFF76BFB03E011462046FFF705
:1035000041FB3846BDE8F08170B5054608780C46A9
:1035100010F0600003D0202801D0402816D195F883
:103520007402012803D0022801D003280ED120798B
:1035300001280BD8D5F88C02826828469047E1888C
:10354000014306D12846FFF74FFB02E02846FFF76C
:1035500019FB002070BD000070B50A78012302F04D
:103560000F054E78AB401B4CD0F81C58012E17D0DD
:1035700045EA0343C0F81C3800EB4210D0F8002B9A
:1035800012040BD4D0F8002B0B89C978C3F30A03BB
:103590001A4344EA81410A43C0F8002B002070BD61
:1035A0009BB21D43C0F81C5800EB4210D0F8003904
:1035B0001B04F3D4D0F800390D89C978C5F30A0586
:1035C00089042B4341EA82510B432343C0F800395D
:1035D000E4E7000000800010D0F800196FF30A0142
:1035E000C0F80019D0F80818C1F34101022905D12B
:1035F000D0F8001941F00301C0F80019D0F8041800
:1036000041F48071C0F804180020704770B504467A
:1036100006990A9E049D0D98012916D0E06840F095
:103620004000E060204600F02BF8A16B1EB321F4AF
:103630008031A163012D07D1A16841F00601A1608D
:10364000A16841F02001A16070BDA16B21F480311F
:10365000A163E168094A1140E160E16821F4401189
:10366000E160012803D1E06840F48010E06020466A
:1036700000F006F8DEE741F48031DAE7BFFFBDFF76
:1036800001220C4902E0521C8A420BD80369002B2C
:10369000F9DA026942F001020261012204E0521CDF
:1036A0008A4201D9032070470369DB07F7D1002064
:1036B00070470000400D030030B50B784D780122B3
:1036C00003F00F0402FA04F4012DD0F83C5817D08F
:1036D00025EA0444C0F83C48D0F81C48097801F0B9
:1036E0000F018A4024EA0241C0F81C1800EB431085
:1036F000D0F8001B0E4A1140C0F8001B002030BD5E
:10370000A4B2A543C0F83C58D0F81C48097801F091
:103710000F018A4091B28C43C0F81C4800EB431063
:10372000D0F80019034A1140C0F80019E6E700007C
:103730000078F3EF007833EC10B5D0F8041821F0DE
:103740000201C0F804180320FDF71EFB002010BD85
:1037500010B5D0F8041841F00201C0F80418032095
:10376000FDF712FB002010BD2DE9F04F0025DDE92B
:103770000BCB0E460446DDF84090099F28462946AB
:1037800004EB8002C2F80411401C0F28F8D3B9F1F1
:10379000000F204618D0006820F400122260A06BB1
:1037A00040F40022A26308468846C4F8000ED4F80C
:1037B00000182046C4F80018BCF1010F10D0D0F852
:1037C000001841F0030110E0806B40F40012A26386
:1037D000A06B20F40022A263A06B20F48022E1E71A
:1037E000D0F800180BB141F00101C0F80018102109
:1037F00000F0A0FA00B10125204600F08BFA00B1DC
:1038000001254046C4F81088C4F81488C4F81C8800
:1038100000214FF000634FF090484FF67F3A14E0DC
:1038200004EB4112D2F800C9BCF1000F06DA11B165
:10383000C2F8008904E0C4F8003901E0C2F80009C8
:10384000C2F81009C2F808A9491C8E42E8D8002124
:1038500015E000BF04EB4112D2F800CBBCF1000F21
:1038600006DA11B1C2F8008B04E0C4F8003B01E0B5
:10387000C2F8000BC2F8100BC2F808AB491C8E420C
:10388000E8D8D4F8101821F480722146C4F8102822
:10389000012F08D1134AC1F83028D1F83018124A44
:1038A0001143C4F83018A0616FF0804060611FB907
:1038B000A06940F01000A061A0690C490843A06114
:1038C000BBF1000F03D0A06940F00800A061B9F17E
:1038D000010F03D1A06906490843A0612846BDE84D
:1038E000F08F0000000180000300010000383C80E0
:1038F00004000040816821F00101816000207047D0
:1039000070B50D784E78434CEBB200EB4313012EAB
:103910001FD0D3F8100B6FF31200C3F8100BD3F8BD
:10392000100B2040C3F8100B486908B18868486143
:10393000D3F8100B40F40020C3F8100BD3F8100B91
:103940008C68C4F312042043C3F8100B012A55D02D
:1039500058E04E69002ED3F8106932D06FF312068A
:10396000C3F81069D3F810692640C3F810694E698E
:103970008C68A64200D94C61D3F8104944F4002465
:10398000C3F81049D3F810494E69C6F31206344300
:10399000C3F81049012A22D000EB4512D2F80039B1
:1039A00043F00443C2F800394A6932B3D0F83428EE
:1039B000097801F00F03012199400A43C0F8342827
:1039C00026E02640C3F81069D3F8104944F40024D7
:1039D000C3F81049D3F810496FF31204D8E7096906
:1039E00019B100EB4512C2F8141900EB4510D0F8DC
:1039F000001941F00441C0F8001909E0C86808B195
:103A0000C3F8140BD3F8000B40F00440C3F8000BCC
:103A1000002070BDFFFF07E010B5036C134CA342FC
:103A200003D9D0F8003B002B1EDB0023C0F8103B6D
:103A3000D0F8103B43F40023C0F8103BD0F8103B03
:103A400043F01803C0F8103BD0F8103B43F0C043DC
:103A5000C0F8103B012907D1C0F8142BD0F8001B87
:103A600041F08021C0F8001B002010BD0A30544FE7
:103A70004A780B78012A00EB43100BD0D0F8002BCA
:103A800022F40012C0F8002BC978032914D00229AF
:103A900012D017E0D0F8002922F40012C0F8002953
:103AA000C978032901D002290CD1D0F8001941F0BE
:103AB0008051C0F8001905E0D0F8001B41F080519A
:103AC000C0F8001B002070470A784B78D1B200EB99
:103AD0004110012B12D0D0F8001B002906DB2AB1BF
:103AE000D0F8001B21F08041C0F8001BD0F8001B6B
:103AF00041F40011C0F8001B00207047D0F80019F5
:103B0000002906DB2AB1D0F8001921F08041C0F865
:103B10000019D0F8001941F40011C0F80019EBE7C2
:103B2000F8B50C784F78774DE3B26FF0604600EB54
:103B30004313012F26D0D3F8104B6FF31204C3F8B0
:103B4000104BD3F8104B2C40C3F8104B4C69002C91
:103B500074D08D682C44641EB4FBF5F4D3F8105B6C
:103B6000A4B206EAC4463543C3F8105BD3F8105B31
:103B70008E686643C6F312042543C3F8105B012A1E
:103B800071D0A6E04F691FB3D3F810796FF3120715
:103B9000C3F81079D3F810792F40C3F810794F6922
:103BA0008D682F447F1EB7FBF5F506EAC545D3F8AF
:103BB00010693543C3F81059D3F810594E69C6F34C
:103BC00012063543C3F81059CD78012D10D01BE0F3
:103BD000D3F810692E40C3F81069D3F8105945F492
:103BE0000025C3F81059D3F810596FF3120509E0F6
:103BF000D3F8105925F0C045C3F81059D3F810591F
:103C000045F00055C3F81059012A18D000EB4413B1
:103C1000D3F8004944F00444C3F80049CC78012C9F
:103C20002FD04A6962B3D0F83428097801F00F0325
:103C3000012199400A43C0F8342860E036E00A695F
:103C40001AB100EB4413C3F81429C97801290FD124
:103C5000D0F80818C90500EB4411D1F8002903D4A5
:103C600042F0005202E030E042F08052C1F80029F8
:103C700000EB4410D0F8001941F00441C0F80019DD
:103C80003DE0D0F80848E405D3F8004902D444F0F8
:103C9000005401E044F08054C3F8004900928A8A3D
:103CA00093B20A78C96800F03FF928E0D3F8104BC6
:103CB0008D68C5F312052C43C3F8104BD3F8104B95
:103CC00044F40024C3F8104B59E7CA680AB1C3F89A
:103CD000142BC97801290CD1D0F80808C005D3F8F5
:103CE000000B02D440F0005001E040F08050C3F8D7
:103CF000000BD3F8000B40F00440C3F8000B002089
:103D0000F8BD0000FFFF07E0816841F0010181601C
:103D100000207047002110220261054A491C91428F
:103D200001D9032070470369DB06F7D400207047F0
:103D3000400D03000022202343EA8111016105495F
:103D4000521C8A4201D90320704703699B06F7D4AD
:103D500000207047400D0300D0F8080810F006005E
:103D600004D0022803D0062801D00F20704702207B
:103D70007047406900F001007047D0F81818D0F87B
:103D80001C08084080B27047D0F81818D0F81C08FA
:103D90000840000C704710B5D0F81038D0F834281F
:103DA00001F00F0400EB4110E24002F00102D0F8F4
:103DB000080943EAC212104010BD00EB4111D1F8CE
:103DC000081BD0F814080840704741698069084012
:103DD0007047D21C10B59308002200F5805002E015
:103DE0000468521C10C19A42FAD3084610BD10B59F
:103DF000C26822F0C042C260012902D029B101206C
:103E000010BDC16841F0005102E0C16841F080413D
:103E1000C1603220FCF7B8FF002010BDD0F80028A8
:103E200022F4FE62C0F80028D0F800284FF4FE63A8
:103E300003EA01110A43C0F800280020704700007F
:103E4000022A3ED1264A274B0A449A4201D20F2128
:103E500038E0254A254B0A449A4201D20E2131E02E
:103E6000234A244B0A449A4201D20D212AE0224AD5
:103E7000224B0A449A4201D20C2123E0204A214BD2
:103E80000A449A4201D20B211CE01F4A1F4B0A44EC
:103E90009A4201D20A2115E01D4A1E4B0A449A4259
:103EA0000FD31D4A1D4B0A449A4201D2082109E052
:103EB0001B4A11441B4A914201D2072102E006210C
:103EC00000E00921C26822F47052C260C2684FF457
:103ED000705303EA81210A43C2600020704700004A
:103EE000405327FF00350C00401E1BFF40420F00CF
:103EF00000DC0BFF804F1200808CF9FE20D61300EF
:103F000060B6E5FE60E3160000D3CEFE40771B00EE
:103F1000C05BB3FEC091210000CA91FE207538003D
:103F2000E05459FEE09C410010B5029C64B9DB1CD2
:103F30009C0800EB0230002300F5805002E004C929
:103F400002605B1CA342FAD3002010BDFEE7000014
:103F50000FB4084B10B504A902AA039800F02CF87E
:103F6000044602A9002000F0C8F9204610BC5DF804
:103F700014FB0000FB4200080907090E002804DBBF
:103F800000F1E02080F80014704700F00F0000F10D
:103F9000E02080F8141D704702E008C8121F08C115
:103FA000002AFAD170477047002001E001C1121FBA
:103FB000002AFBD1704700002DE9FF4F8BB08846E7
:103FC0000546002606E025280BD0DDE90D129047B6
:103FD0006D1C761C28780028F5D10FB03046BDE85E
:103FE000F08F0024A146A2460122AE4900E004431E
:103FF00015F8013F203B02FA03F00842F7D1287878
:104000002A2810D06FF02F022878A0F1300109295A
:1040100015D809EB890102EB410144F0020400EBE1
:1040200001096D1CF0E758F8041B5FEA010903D58C
:1040300044F40054C9F1000944F002046D1C2878CE
:104040002E2817D115F8010F44F004042A280ED0A9
:104050006FF02F022878A0F1300109290AD80AEB65
:104060008A0102EB410100EB010A6D1CF2E758F8EE
:1040700004AB6D1C28786C280FD006DC4C2817D0B8
:1040800068280DD06A2814D104E0742810D07A284A
:104090000FD10DE044F400140AE044F4801401E070
:1040A00044F440146978814202D104F580146D1CF7
:1040B0006D1C2878692865D006DC00288DD063281F
:1040C00027D0642806D15DE06E2808D073282AD056
:1040D000752877D0DDE90D129047761CE0E0C4F337
:1040E0000250022809D003280DD0D8F80010042867
:1040F0000DD00E6008F10408D2E0D8F80010F217D5
:10410000C1E90062F6E7D8F800100E80F2E70E7001
:10411000F0E718F8041B8DF8001000208DF801005E
:10412000EB46012003E058F804BB4FF0FF30610775
:104130004FF0000701D40AE07F1C57450DDA874293
:10414000FADB1BF807100029F6D106E07F1C874236
:10415000FCDB1BF807100029F8D1DDE90D23A9EBE2
:1041600007008146214600F0B1F83044C61904E04A
:10417000DDE90D121BF8010B90477F1EF8D2214696
:10418000484688E058F8040BC4F302514FF00A0B7C
:10419000032900D100B2042900D140B2002802DA7C
:1041A00040422D2102E0210505D52B218DF8241058
:1041B000012104E006E0E10710D02021F6E708AF76
:1041C000089113E058F8040BC4F302514FF00A0BA6
:1041D000032900D180B2042900D1C0B20021EEE74A
:1041E0005946FCF749F8303107F8011D0028F7D18E
:1041F000ADEB070000F1200B600702D524F48034FA
:1042000001E04FF0010ADA4502DDAAEB0B0000E005
:104210000020824600EB0B0108980144A9EB010045
:104220000A90E00306D4DDE90D2321460A9800F048
:104230004DF806444FF0000908E009A911F80900FB
:10424000DDE90D12904709F10109761C08998945AD
:10425000F3DBE0030CD5DDE90D2321460A9800F0DD
:1042600035F8064404E0DDE90D1230209047761C55
:10427000BAF10001AAF1010AF5DC05E0DDE90D1251
:1042800017F8010B9047761CBBF10001ABF1010B55
:10429000F4DC0A982146DDE90D2300F005F8064418
:1042A0006D1C97E6092801002DE9F0410446002520
:1042B0001E461746880404D405E039462020B0473E
:1042C0006D1C641EF9D52846BDE8F0812DE9F0414A
:1042D000044600251E469046C80301D5302700E05D
:1042E0002027880404D505E041463846B0476D1CB8
:1042F000641EF9D52846BDE8F0810A68531C0B609E
:104300001070704710B5002821D0114B0022001FFB
:10431000196803E0814203D80A4649680029F9D1A7
:1043200052B11368841A9C4204D10068184410608A
:10433000104602E0506000E0186039B102680B1AC4
:10434000934203D10B681A4402604968416010BD72
:104350009401002008B5FCF71FFEFEF7A9F9FEF74F
:1043600047F81048016841F48001016000680022AC
:1043700000F48000009011463A20FCF76DFE3A20D0
:10438000FCF75CFEFEF774F8FEF706F8FEF79AF805
:104390000548FDF757FE0448012204494838FCF758
:1043A00075FAFEE730380240E40100200C000020DE
:1043B000F0B50B30154D20F007010024144A0FE032
:1043C00003688B420BD38B4205D95E1A43184768AA
:1043D000C3E9006700E04368136002C004E0021D07
:1043E00010680028ECD12046002802D1286808B1C6
:1043F0000020F0BD064A07481060074A121A22F052
:104400000702C0E9002401202860D7E798010020B6
:1044100094010020FC800020F88200200006101685
:104420000006101600000000000000000102030456
:104430000607080954440008000000209C01000001
:1044400008030008144500089C0100205C8500005A
:10445000A83F0008011013212C1B0851041A5D0409
:104460001A85041AB1041A01041A2D041704030949
:10447000041201140202021640830440572602016E
:10448000020301031A1A031321051B081B041A1740
:10449000041A4504192F1182105324F4130A06320A
:1044A000022A401C1C090243571125C03209041B73
:1044B00001020B1305241610010524011009010443
:1044C000240202052406170107058203081C1009AF
:1044D000048D320A2E07050102D8072A8107093800
:1044E000444A40441907112B0907440A3B0444136A
:1044F0009D291B08030413772A42081A470C138BC3
:10450000281B08D504C11A85181A79041A91041AAF
:044510006D048100B5
:040000050800018965
:00000001FF
